:020000040800F2
:1000000000500020891F0008091300080B13000886
:100010000D1300080F130008111300080000000062
:1000200000000000000000000000000013130008A2
:10003000151300080000000017130008191300082A
:10004000D11F0008D11F0008D11F0008D11F0008D0
:10005000D11F0008D11F0008D11F0008D11F0008C0
:10006000D11F0008D11F0008D11F0008D11F0008B0
:10007000D11F0008D11F0008D11F0008D11F0008A0
:10008000D11F0008D11F0008D11F0008D11F000890
:10009000D11F0008D11F0008D11F0008D11F000880
:1000A000D11F0008D11F0008D11F0008D11F000870
:1000B000D11F0008D11F0008D11F0008D11F000860
:1000C000D11F0008D11F0008D11F0008D11F000850
:1000D000D11F0008D11F0008D11F0008D11F000840
:1000E00021130008D11F0008D11F000800000000E4
:1000F0000000000000000000000000000000000000
:0C01000000000000000000005FF808F1A3
:10010C0010B5054C237833B9044B13B10448AFF345
:10011C0000800123237010BD6C0000200000000043
:10012C00F42F000808B5034B1BB103490348AFF388
:10013C00008008BD0000000070000020F42F0008B3
:10014C0070B588B004AD002404940594069407940B
:10015C00244B9A6942F010029A619A6902F01002DB
:10016C000092009A9A6942F020029A619A6902F010
:10017C0020020192019A9A6942F004029A619A69EA
:10018C0002F004020292029A9A6942F008029A6101
:10019C009B6903F008030393039B134E2246202113
:1001AC00304600F069FA4FF4005304930F4B05935B
:1001BC00069429460E4800F055F920230493012398
:1001CC0005930694022307932946304600F04AF91A
:1001DC0022462146282000F013F9282000F020F9AF
:1001EC0008B070BD00100240000801400000111062
:1001FC000010014072B6FEE710B590B006AC282294
:10020C000021204602F054F800230193029303933B
:10021C0004930593012206924FF4803307930A92BC
:10022C0002220D920E934FF4E0130F93204600F030
:10023C0079FA78B90F2301930221029100230393D9
:10024C004FF480620492059301A800F09DFC18B94C
:10025C0010B010BDFFF7CEFFFFF7CCFF00B59DB07F
:10026C0000F050F8FFF7C8FFFFF76AFF01F02AF91A
:10027C0001F0B6F801AC082300220D49204601F02C
:10028C006FFD00F05DF801F09FFE204601F064FD6B
:10029C00204601F077FD4FF47A7000F057F82021DA
:1002AC00044800F0EFF901A801F032FCF7E700BFB9
:1002BC00900000200008014010B504460E4B1A783F
:1002CC004FF47A73B3FBF2F30C4A1068B0FBF3F003
:1002DC0000F0B4F868B90F2C01D901200AE0002213
:1002EC0021464FF0FF3000F08BF8054B1C600020CE
:1002FC0000E0012010BD00BF00000020080000201D
:10030C000400002008B5074A136843F0100313607B
:10031C00032000F063F80020FFF7CEFF00F0CAF9CD
:10032C00002008BD00200240034A1168034B1B78D3
:10033C000B441360704700BF8800002000000020B1
:10034C00014B1868704700BF8800002038B5044680
:10035C00FFF7F6FF0546B4F1FF3F02D0044B1B78C4
:10036C001C44FFF7EDFF401BA042FAD338BD00BF81
:10037C0000000020002808DB0901C9B200F1604030
:10038C0000F5614080F80013704700F00F00090180
:10039C00C9B2014B1954704714ED00E000B500F0E0
:1003AC000700C0F1070CBCF1040F28BF4FF0040C80
:1003BC00031D062B0FD9C31E4FF0FF3E0EFA0CF097
:1003CC0021EA000199400EFA03FE22EA0E0241EAEC
:1003DC0002005DF804FB0023EEE70000074AD36837
:1003EC0023F4E0631B041B0C000200F4E0600343E5
:1003FC0043F0BF6343F40033D360704700ED00E07B
:10040C0010B50446054BD868C0F30220FFF7C6FFB1
:10041C0001462046FFF7AEFF10BD00BF00ED00E027
:10042C00002807DB00F01F02400901239340024A19
:10043C0042F82030704700BF00E100E00138B0F115
:10044C00807F0BD24FF0E0235861054AF02182F8EF
:10045C0023100020986107221A6170470120704711
:10046C0000ED00E070B582B00024A4469EE07C4D07
:10047C00AB4214D00CD8A5F58015AB420FD005F5C6
:10048C007025AB420BD0A5F58015AB421FD106E011
:10049C00744DAB4203D005F58035AB4217D18B6858
:1004AC00A3B1012B0DD04261082410E0CC680EE002
:1004BC00CC6804340BE0CC68083408E0CC680C340D
:1004CC0005E00261082402E0002400E00424BEF1EF
:1004DC00FF0F37D806464FEA8C0233680F2595403C
:1004EC0023EA050304FA02F2134333604B6813F05A
:1004FC00805F59D05C4B9A6942F001029A619B690A
:10050C0003F001030193019B4FEA9C02951C574B8E
:10051C0053F825600CF00305AD000F23AB4026EA21
:10052C000306534B984214D003F58063984279D05C
:10053C0003F58063984277D003F58063984206D028
:10054C00042307E0061DACF108029200C5E7032363
:10055C0000E00023AB4033430232444D45F82230D7
:10056C004B6813F4801F61D0424A936843EA0E0330
:10057C0093604B6813F4001F5ED03E4AD36843EA85
:10058C000E03D3604B6813F4003F5BD0394A5368B9
:10059C0043EA0E0353604B6813F4803F58D0354A3E
:1005AC00136843EA0E0313600CF1010C0B6833FA69
:1005BC000CF253D0012202FA0CF203EA020E32EAD8
:1005CC000303F1D14B68122B3FF651AF122B3FF6C0
:1005DC007EAF01A555F823F0AB040008B904000860
:1005EC00C3040008D5040008DB040008DB04000881
:1005FC00DB040008DB040008DB040008DB04000853
:10060C00DB040008DB040008DB040008DB04000842
:10061C00DB040008DB040008DB040008BD04000850
:10062C00C9040008012395E7022393E7114A936854
:10063C0023EA0E0393609CE70E4AD36823EA0E0369
:10064C00D3609FE70B4A536823EA0E035360A2E77B
:10065C00084A136823EA0E031360A5E702B070BDC5
:10066C000000221000003110001002400000014078
:10067C0000080140000401400AB1016170470904FF
:10068C0001617047C36801EA030221EA030141EAF0
:10069C00024101617047704708B5054B5B69034225
:1006AC0000D108BD024B5861FFF7F5FFF9E700BF19
:1006BC000004014082B00E4B9A6942F001029A612B
:1006CC009A6902F001020092009ADA6942F08052B3
:1006DC00DA61DB6903F080530193019B054A53688F
:1006EC0023F0E06343F00073536002B0704700BF27
:1006FC00001002400000014082B0084B1B68084A01
:10070C00A2FB03235B0A00FB03F3019300BF019BD5
:10071C005A1E0192002BF9D102B07047080000203C
:10072C00D34D6210002800F0F18170B582B0044600
:10073C00036813F0010F2CD0994B5B6803F00C038A
:10074C00042B1DD0964B5B6803F00C03082B12D0C6
:10075C006368B3F5803F41D0002B55D103F1804342
:10076C0003F504331A6822F480321A601A6822F4F2
:10077C0080221A6037E08A4B5B6813F4803FE7D025
:10078C00874B1B6813F4003F03D06368002B00F009
:10079C00BF81236813F0020F75D0814B5B6813F097
:1007AC000C0F5FD07E4B5B6803F00C03082B54D00E
:1007BC002369002B00F08A807A4B01221A60FFF724
:1007CC00BFFD0546764B1B6813F0020F75D1FFF782
:1007DC00B7FD401B0228F5D903209EE1704A13682F
:1007EC0043F480331360636843B3FFF7A9FD0546F8
:1007FC006B4B1B6813F4003FCBD1FFF7A1FD401BE3
:10080C006428F5D9032088E1B3F5A02F09D0644BF7
:10081C001A6822F480321A601A6822F480221A6054
:10082C00E1E703F18043A3F53C331A6842F48022DC
:10083C001A601A6842F480321A60D4E7FFF780FD20
:10084C000546574B1B6813F4003FA2D0FFF778FD09
:10085C00401B6428F5D903205FE1514B5B6813F40E
:10086C00803FA5D14E4B1B6813F0020F03D02369B8
:10087C00012B40F04F814A4A136823F0F803616959
:10088C0043EAC1031360236813F0080F33D0A36944
:10089C00002B5CD0434B0122C3F88024FFF750FDA2
:1008AC0005463F4B5B6A13F0020F21D1FFF748FD61
:1008BC00401B0228F5D903202FE1394A136823F095
:1008CC00F803616943EAC1031360DCE7354B00228E
:1008DC001A60FFF735FD0546314B1B6813F0020F0C
:1008EC00D1D0FFF72DFD401B0228F5D9032014E1D0
:1008FC000120FFF701FF236813F0040F00F096802E
:10090C00274BDB6913F0805F34D1254BDA6942F059
:10091C008052DA61DB6903F080530193019B01255E
:10092C00214B1B6813F4807F26D0E368012B3DD04C
:10093C00002B53D103F1804303F504331A6A22F0E0
:10094C0001021A621A6A22F004021A6233E0154B91
:10095C000022C3F88024FFF7F3FC0546104B5B6ABA
:10096C0013F0020FC7D0FFF7EBFC401B0228F5D9A0
:10097C000320D2E00025D3E70B4A136843F48073BD
:10098C001360FFF7DDFC0646074B1B6813F4807FF2
:10099C00CBD1FFF7D5FC801B6428F5D90320BCE034
:1009AC000010024000004242007000405F4A136A8F
:1009BC0043F001031362E36833B3FFF7C1FC06464F
:1009CC005A4B1B6A13F0020F2FD1FFF7B9FC801B97
:1009DC0041F288339842F3D903209EE0052B09D0CD
:1009EC00524B1A6A22F001021A621A6A22F00402AD
:1009FC001A62E0E74D4B1A6A42F004021A621A6A54
:100A0C0042F001021A62D6E7FFF79AFC0646474B02
:100A1C001B6A13F0020F08D0FFF792FC801B41F207
:100A2C0088339842F3D9032077E0E5B9E369002BCA
:100A3C0072D03E4A526802F00C02082A56D0022BA1
:100A4C0017D03B4B00221A66FFF77AFC0446374B53
:100A5C001B6813F0007F47D0FFF772FC001B0228C5
:100A6C00F5D9032059E0314AD36923F08053D3617F
:100A7C00DCE72F4B00221A66FFF762FC05462B4B76
:100A8C001B6813F0007F06D0FFF75AFC401B0228AE
:100A9C00F5D9032041E0236AB3F5803F1AD02349EE
:100AAC004B6823F47413226A606A024313434B604D
:100ABC001F4B01221A66FFF743FC04461B4B1B68B5
:100ACC0013F0007F0ED1FFF73BFC001B0228F5D979
:100ADC00032022E0154A536823F40033A1680B432A
:100AEC005360DCE7002018E0002016E0012B16D044
:100AFC000E4B5B6803F48031226A914211D103F4EE
:100B0C007013626A93420ED1002006E001207047F8
:100B1C00012002E0012000E0002002B070BD0120A5
:100B2C00FBE70120F9E70120F7E700BF00100240C6
:100B3C00000042420F4B5B6803F00C02082A01D004
:100B4C000D487047C3F383420C49885C13F4803F13
:100B5C000BD0084B5B68C3F34043094AD35C064A8D
:100B6C0002FB00F0B0FBF3F07047064B03FB00F008
:100B7C00704700BF0010024000127A0020300008BD
:100B8C001C30000800093D00002800F0A08070B562
:100B9C000D460446524B1B6803F007038B420BD2E5
:100BAC004F4A136823F007030B431360136803F0D9
:100BBC0007038B4240F08D80236813F0020F17D08F
:100BCC0013F0040F04D0474A536843F4E0635360B6
:100BDC00236813F0080F04D0424A536843F460535F
:100BEC005360404A536823F0F003A1680B435360F1
:100BFC00236813F0010F31D06368012B20D0022B36
:100C0C0025D0384A126812F0020F64D035494A6870
:100C1C0022F0030213434B60FFF792FB0646314B65
:100C2C005B6803F00C036268B3EB820F16D0FFF71E
:100C3C0087FB801B41F288339842F0D9032045E0B2
:100C4C00284A126812F4003FE0D101203EE0254A08
:100C5C00126812F0007FD9D1012037E0204B1B68BD
:100C6C0003F00703AB420AD91D4A136823F00703AC
:100C7C002B431360136803F00703AB422DD1236899
:100C8C0013F0040F06D0174A536823F4E063E168AD
:100C9C000B435360236813F0080F07D0114A5368B5
:100CAC0023F46053216943EAC1035360FFF742FF09
:100CBC000C4B5B68C3F303130B4AD35CD8400B4B50
:100CCC0018600B4B1868FFF7F7FA002070BD012075
:100CDC0070470120FAE70120F8E70120F6E700BF92
:100CEC0000200240001002403830000808000020AC
:100CFC0004000020014B1868704700BF080000205A
:100D0C0008B5FFF7F7FF044B5B68C3F30223034AF4
:100D1C00D35CD84008BD00BF001002403030000842
:100D2C0008B5FFF7E7FF044B5B68C3F3C223034A24
:100D3C00D35CD84008BD00BF001002403030000822
:100D4C0030B4026A036A23F00103036245688369C5
:100D5C0023F073030C681C4322F002028B681343CC
:100D6C000B4A904206D0456084614A684263036234
:100D7C0030BC704723F00803CA681A4322F00403FE
:100D8C0025F440754A692A438D691543EBE700BF8A
:100D9C00002C014030B4036A026A22F480720262B1
:100DAC004468C26922F073020D68154323F4007382
:100DBC008A6843EA02230D4A904206D04460C5611A
:100DCC004A68C263036230BC704723F40063CA688C
:100DDC0043EA022323F4806324F440544A6944EA2E
:100DEC0002148A6944EA0214E8E700BF002C0140AF
:100DFC0030B4036A026A22F4805202624468C26907
:100E0C0022F4E6420D6842EA052223F400538D6871
:100E1C0043EA0533074DA84206D04460C2614A68D4
:100E2C000264036230BC704724F480444D6944EA88
:100E3C008514F2E7002C01407047000003681F4A3C
:100E4C0090420AD0B0F1804F07D0A2F59432904274
:100E5C0003D002F58062904203D123F070034A68FC
:100E6C001343164A90420AD0B0F1804F07D0A2F536
:100E7C009432904203D002F58062904203D123F465
:100E8C004073CA68134323F080034A691343036019
:100E9C008B68C3620B688362084B98420AD00123AB
:100EAC004361036913F0010F03D0036923F00103BD
:100EBC00036170470B690363F1E700BF002C01402D
:100ECC0040B310B5044690F83D30F3B1022384F8DA
:100EDC003D30214651F8040BFFF7B0FF012384F895
:100EEC00463084F83E3084F83F3084F8403084F843
:100EFC00413084F8423084F8433084F8443084F82C
:100F0C00453084F83D30002010BD80F83C3000F0B6
:100F1C00A9FADBE70120704740B310B5044690F8FE
:100F2C003D30F3B1022384F83D30214651F8040BD7
:100F3C00FFF784FF012384F8463084F83E3084F8B0
:100F4C003F3084F8403084F8413084F8423084F8E3
:100F5C00433084F8443084F8453084F83D30002028
:100F6C0010BD80F83C30FFF767FFDBE701207047CE
:100F7C0030B4036A026A22F0100202624468826989
:100F8C0022F4E6420D6842EA052223F020038D6824
:100F9C0043EA05130C4DA84206D0446082614A68AE
:100FAC008263036230BC704723F08003CD6843EA50
:100FBC00051323F0400324F440644D6944EA85048E
:100FCC008D6944EA8504E8E7002C014038B590F8B7
:100FDC003C30012B66D004460D46012380F83C3092
:100FEC000C2A5AD8DFE802F0075959591B5959599C
:100FFC003059595944000068FFF7A2FE22689369E2
:10100C0043F0080393612268936923F0040393610E
:10101C002268936929690B43936100203EE00068C4
:10102C00FFF7A6FF2268936943F40063936122687B
:10103C00936923F48063936122689369296943EA75
:10104C0001239361002029E00068FFF7A3FE2268CA
:10105C00D36943F00803D3612268D36923F00403F6
:10106C00D3612268D36929690B43D361002015E051
:10107C000068FFF7BDFE2268D36943F40063D361B7
:10108C002268D36923F48063D3612268D369296908
:10109C0043EA0123D361002000E00120002384F8FF
:1010AC003C3038BD0220FCE701F01F014FF0010C71
:1010BC000CFA01FC036A23EA0C030362036A8A40FC
:1010CC00134303627047000010B50446084649BB41
:1010DC0094F83E30013B18BF0123002B58D1002857
:1010EC0036D1022384F83E30012201462068FFF7F6
:1010FC00DBFF2368284A93423AD02368264A93425E
:10110C003BD0B3F1804F38D0A2F59432934234D017
:10111C0002F58062934230D01A6842F001021A60E4
:10112C00002036E0042907D008290BD094F8413070
:10113C00013B18BF0123D0E794F83F30013B18BFA7
:10114C000123CAE794F84030013B18BF0123C4E7E0
:10115C00042805D0082807D0022384F84130C3E7BF
:10116C00022384F83F30BFE7022384F84030BBE70A
:10117C005A6C42F400425A64BFE79A6802F00702C4
:10118C00062A07D01A6842F001021A60002000E01B
:10119C00012010BD0020FCE7002C014090F83C2001
:1011AC00012A2CD010B40346012280F83C200222E4
:1011BC0080F83D2002685068946820F0700C086834
:1011CC0040EA0C0050601A680E4882420AD0B2F114
:1011DC00804F07D0A0F59430824203D000F5806098
:1011EC00824204D124F08004496821439160012299
:1011FC0083F83D20002083F83C0010BC704702208F
:10120C00704700BF002C014010B5044602681369FA
:10121C0023F44053C1680B43136183680269134381
:10122C0042691A430168CB6823F4B05323F00C03D2
:10123C001343CB600268536923F4407381690B43F9
:10124C0053610268134B9A4220D0FFF759FD0246B6
:10125C0002EB820202EB820263689B00B2FBF3F2A8
:10126C000D48A0FB02314909642303FB11231B0128
:10127C003233A0FB03035B0903F0F00202EB011213
:10128C0003F00F03216813448B6010BDFFF748FD7A
:10129C000246DDE7003801401F85EB5160B310B505
:1012AC00044690F8413013B3242384F8413022686B
:1012BC00D36823F40053D3602046FFF7A5FF2268C0
:1012CC00136923F4904313612268536923F02A03B2
:1012DC0053612268D36843F40053D36000206064E8
:1012EC00202384F8413084F84230606310BD80F8CC
:1012FC00403000F001F9D7E701207047FEE7FEE728
:10130C00FEE7FEE7FEE770477047704708B5FFF74A
:10131C000BF808BD08B54FF40050FFF7BDF908BD38
:10132C000120704708B501F011F8162303604FF047
:10133C00FF3008BD08B54FF0FF31FFF7F3FFFEE7B4
:10134C0070B50C461646002506E0AFF3008021462A
:10135C0001F8010B01350C46B542F6DB304670BD89
:10136C0070B50C461646002504E014F8010BAFF3DB
:10137C0000800135B542F8DB304670BD4FF0FF30D0
:10138C0070474FF400534B600020704701207047AA
:10139C000020704710B503460C4A0D490D480068F3
:1013AC0040B10C4800680344521A934206D8094ACB
:1013BC00136010BD0748084C0460F2E700F0C6FF4C
:1013CC000C2303604FF0FF30F3E700BF0050002008
:1013DC00000400008C000020A802002070470000D0
:1013EC0000B58BB0002308930993019302930393E8
:1013FC00049305930693079319484FF080420260BB
:10140C00436083604722C26003618361FFF758FD2C
:10141C00C8B91348FFF780FDC0B90023089309939E
:10142C0008A90F48FFF7BAFE98B960230193002270
:10143C0002920392059201A90948FFF7C7FD58B91A
:10144C000BB05DF804FBFEF7D5FEE2E7FEF7D2FE2B
:10145C00E3E7FEF7CFFEE8E7FEF7CCFEF0E700BFD0
:10146C009000002000B587B00023029303930493EF
:10147C0005930368B3F1804F02D007B05DF804FB0D
:10148C0003F50433DA6942F00102DA61DA6902F039
:10149C0001020092009A9A6942F004029A619B69D7
:1014AC0003F004030193019B012302930223039392
:1014BC000323059302A90248FEF7D4FFDDE700BF22
:1014CC000008014008B50A480A4B03604FF4E133A9
:1014DC00436000238360C36003610C22426183611B
:1014EC00C361FFF7DBFE00B908BDFEF783FEFBE727
:1014FC00D80000200044004000B587B000230293C0
:10150C000393049305930268114B9A4202D007B0DF
:10151C005DF804FB03F5E633DA6942F40032DA6174
:10152C00DA6902F400320092009A9A6942F00402DD
:10153C009A619B6903F004030193019B0C230293B2
:10154C0002230393059302A90248FEF78BFFDEE703
:10155C00004400400008014000B583B0C343DBB237
:10156C0000228DF800208DF801208DF80220542BDC
:10157C0025D8A3EB8303DBB25A1E8DF800205B4207
:10158C008DF80130009800F019FC8DF80400C0F3C0
:10159C0007238DF80530C0F307408DF806000020B6
:1015AC009DF8043063F307009DF8053063F30F20BA
:1015BC009DF8063063F3174003B05DF804FBA92BCC
:1015CC000CD8C0F1AA00C3B2A3EB8303DBB25A1E42
:1015DC008DF801205B428DF80230D3E7C0F1550045
:1015EC00C3B203EB4303DBB28DF80030DB438DF861
:1015FC000230C7E700FB01F1034880FB01300844CF
:10160C00C0F3C710704700BF8180808030B583B0B5
:10161C0005460C46FEF794FE1C4B1B68C01AA042F4
:10162C0032D803B030BD1A4B187800EB441043424B
:10163C00C0B2DBB258BF5842C0B2FFF78DFF8DF875
:10164C000400C0F307238DF80530C0F307408DF874
:10165C000600019A2146284600F02FFB0134A4B263
:10166C002B89A342DFD8284600F08CFB08490B7865
:10167C0002335A42DBB2D2B258BF53420B70FEF760
:10168C005FFE024B1860CCE70024E9E75401002010
:10169C005001002030B583B0044601911546FEF789
:1016AC004FFE124B1B68C01AA84201D803B030BDC4
:1016BC00204600F051FB23890D4A11888B4210D82B
:1016CC00204600F05FFB0A4A13880133218993FB03
:1016DC00F1F001FB10331380FEF732FE034B186060
:1016EC00E4E7019A204600F0E8FAE9E74C01002013
:1016FC004801002030B585B0054601911446FEF72F
:10170C001FFE244B1B68C31AA34201D805B030BD81
:10171C00214B1C7821469DF80400FFF76BFF8DF8D8
:10172C000C0021469DF80500FFF764FF8DF80D00B5
:10173C0021469DF80600FFF75DFF8DF80E0003991A
:10174C00284600F0F1FA284600F01CFB134B1B78DE
:10175C0093B1114A13780233DBB21370FF2B04D010
:10176C00FEF7EEFD0B4B1860D0E71346FF221A7004
:10177C000A4B00221A70F3E7074A1378023BDBB2DC
:10178C001370002BECD1134600221A70034B01226C
:10179C001A70E5E744010020400100200D000020F4
:1017AC00F0B583B006460C46FEF7CAFD244B1B6809
:1017BC00C01AA04242D900252EE05C08803CE4B25D
:1017CC009F0800F02FFC434200F01F0003F01F03A2
:1017DC0058BF584210380444E3B214F0800F00D1C3
:1017EC0080238DF804308DF8057000238DF80630B9
:1017FC00019800F0E3FA8DF80400C0F307238DF88C
:10180C000530C0F307408DF80600019A2946304692
:10181C0000F053FA0135ADB23389AB4207D96B01F5
:10182C00DBB283F0FF033F2BC7D84023C5E730461C
:10183C0000F0A8FAFEF784FD014B186003B0F0BD70
:10184C003C01002030B583B005460C46FEF778FD10
:10185C00284B1B68C01AA04249D803B030BD04EB1A
:10186C00C402254B1B7803EB82035A42DBB2D2B283
:10187C0058BF5342DBB203EB4302C3EB82131F4A44
:10188C0082FB03121A44DB17C3EBE213DBB24033C7
:10189C00DBB28DF804308DF805308DF806300198E8
:1018AC0000F08CFA8DF80400C0F307238DF8053096
:1018BC00C0F307408DF80600019A2146284600F037
:1018CC00FCF90134A4B22B89A342C8D8284600F0F5
:1018DC0059FA09490B7803335A42DBB2D2B258BFDA
:1018EC0053420B70FEF72CFD024B1860B5E7002439
:1018FC00E9E700BF3801002034010020818080809E
:10190C0070B582B005460C46FEF71AFD184B1B68E5
:10191C00C01AA04201D802B070BD284600F01CFAD3
:10192C0000261AE000F07EFB2B8990FBF3F203FB00
:10193C001204A4B200F0FAFA8DF80400C0F30723E5
:10194C008DF80530C0F307438DF80630019A214617
:10195C00284600F0B2F90136F6B2022EE2D928463A
:10196C0000F010FAFEF7ECFC014B1860D3E700BF57
:10197C003001002070B582B005460C46FEF7E0FC45
:10198C00304B1B68C01AA04201D802B070BD28466B
:10199C0000F0E2F94FF0FF3401E0013464B2012CA5
:1019AC002EDC294B1B8823449EB21BB2002BF4DB8C
:1019BC002A899342F1DA84EAE473A3EBE473DBB291
:1019CC00C3F102039B0113F0FF03E6D08DF8043042
:1019DC0000238DF805308DF80630019800F0EEF9F3
:1019EC008DF80400C0F307238DF80530C0F30740D1
:1019FC008DF80600019A3146284600F05EF9CCE7D6
:101A0C00284600F0BFF9114B1B7883B10E4A13889E
:101A1C0001339BB213802A89013A934202DB0B4BB0
:101A2C0000221A70FEF78CFC064B1860ADE7064AD4
:101A3C001388013B9BB21380002BF3D1034B012283
:101A4C001A70EFE72C010020280100200C00002068
:101A5C0030B583B005460C46FEF772FC2A4B1B686A
:101A6C00C01AA0424ED9002420E082F0800252001D
:101A7C00D2B28DF8042082F0FF028DF805200023ED
:101A8C008DF80630019800F099F98DF80400C0F338
:101A9C0007238DF80530C0F307408DF80600019A36
:101AAC002146284600F009F90134A4B22B89A3423F
:101ABC0018D9164B1B7803EBC4035A42DBB2D2B2D3
:101ACC0058BF5342DAB213F0800FCED100238DF8F9
:101ADC0004305200D2B28DF8052082F0FF028DF84E
:101AEC000620CFE7284600F04DF908490B7804335F
:101AFC005A42DBB2D2B258BF53420B70FEF720FCF5
:101B0C00014B186003B030BD2401002020010020DF
:101B1C0030B583B00446002507E064212046FFF76A
:101B2C0097FF6420FEF712FC0135272DF5DD00250B
:101B3C0007E064212046FFF71DFF6420FEF706FC3A
:101B4C000135272DF5DD002507E064212046FFF740
:101B5C005DFD6420FEF7FAFB0135272DF5DD002530
:101B6C0007E064212046FFF71BFE6420FEF7EEFB26
:101B7C000135272DF5DD002507E064212046FFF710
:101B8C0061FE6420FEF7E2FB0135272DF5DD002513
:101B9C0014E000F06BF98DF80000C0F307238DF80A
:101BAC000130C0F307408DF80200642200992046F2
:101BBC00FFF770FD6420FEF7C9FB0135272DE8DD2A
:101BCC00002514E000F082F98DF80400C0F307231F
:101BDC008DF80530C0F307408DF80600642201999A
:101BEC002046FFF787FD6420FEF7B0FB0135272D5B
:101BFC00E8DD002507E064212046FFF781FE642024
:101C0C00FEF7A4FB0135272DF5DD03B030BD000038
:101C1C0001EBC101C9000D4B83FB01314911436834
:101C2C001BB903681B6859637047042B05D0082B3C
:101C3C0007D003681B681964704703681B689963B5
:101C4C00704703681B68D963704700BF1F85EB5151
:101C5C0070B504460E4607250EE01C212046FFF702
:101C6C00D7FF23681B681A6912F0010FF9D06FF0C7
:101C7C0001021A61013D6DB2002D09DB46FA05F334
:101C8C0013F0010FE9D038212046FFF7C1FFE8E738
:101C9C0070BD10B504460021FFF7BAFF002109E022
:101CAC0023681B681A6912F0010FF9D06FF001025A
:101CBC001A6101313129F3DD10BD84B00192038921
:101CCC008B4215D900238DF80C308DF80D308DF822
:101CDC000E3001EB41010844BDF80C109DF80E20AC
:101CEC0041810273BDF804109DF8062041810273F6
:101CFC0004B0704782B000238DF804308DF80530A5
:101D0C008DF806300BE003EB43020244BDF804C02F
:101D1C009DF80610A2F80AC0117301339BB2028918
:101D2C009A42F0D802B0704710B582B004460191C7
:101D3C00FFF7E0FF00230AE003EB43022244BDF867
:101D4C0004009DF806105081117301339BB2228957
:101D5C009A42F1D802B010BD08B5FFF7CBFF08BD11
:101D6C0010B5044601604260202B09D92023038161
:101D7C002046FFF7F1FF61682068FFF7A5F910BD59
:101D8C000381F5E770B50646002410E004EB44052A
:101D9C003544E97A3046FFF75BFFA97A3046FFF706
:101DAC0057FF297B3046FFF753FF0134A4B2338928
:101DBC00A342EBD83046FFF76CFF70BD88B00190A2
:101DCC009DF804304FF4485202FB03F305939DF841
:101DDC00053002FB03F304939DF8063002FB03F37A
:101DEC000393059B9B08204AA2FB03139B0A0593B4
:101DFC00049B9B08A2FB03139B0A0493039B9B0865
:101E0C00A2FB03239B0A0393059BFF2B26D8059B60
:101E1C00DBB28DF81830049BFF2B21D8049BDBB26E
:101E2C008DF81930039BFF2B1CD8039BDBB28DF86C
:101E3C001A30069BADF81C301B0C8DF81E300020A0
:101E4C009DF81C3063F307009DF81D3063F30F20E1
:101E5C009DF81E3063F3174008B07047FF23D8E796
:101E6C00FF23DDE7FF23E2E771E11E2910B584B003
:101E7C0000248DF80840FF238DF809308DF80A40B6
:101E8C000298FFF79BFF8DF80400C0F307238DF831
:101E9C000530C0F307408DF806008DF804408DF82E
:101EAC000640019BADF80C301B0C8DF80E30204613
:101EBC009DF80C3063F307009DF80D3063F30F2091
:101ECC009DF80E3063F3174004B010BD10B584B00C
:101EDC0000248DF808408DF80940FF238DF80A3056
:101EEC000298FFF76BFF8DF80400C0F307238DF801
:101EFC000530C0F307408DF806008DF804408DF8CE
:101F0C000540019BADF80C301B0C8DF80E302046B3
:101F1C009DF80C3063F307009DF80D3063F30F2030
:101F2C009DF80E3063F3174004B010BD00B583B0BC
:101F3C00114B1B68ADF800301B0C8DF8023000986B
:101F4C00FFF73CFF8DF80400C0F307238DF8053034
:101F5C00C0F307408DF8060000209DF8043063F3B1
:101F6C0007009DF8053063F30F209DF8063063F3EE
:101F7C00174003B05DF804FB0C300008FFF72EFA95
:101F8C000B480C490C4A002302E0D458C4500433CB
:101F9C00C4188C42F9D3094A094C002301E01360A0
:101FAC000432A242FBD300F0D7F9FEF757F9704781
:101FBC00000000206C000020583100086C0000204C
:101FCC00A4020020FEE7000038B5104B04461D6843
:101FDC002A6BB2B9182000F04DFA0246286320B9DA
:101FEC0046210B4B0B4800F0DFF90B490B4BC0E9BA
:101FFC0000130B4B002183600B2383810120C2E96A
:10200C00040100231461536138BD00BF1C00002083
:10201C00483000085F3000080E33CDAB34126DE64B
:10202C00ECDE0500164B10B51C68226BB2B91820FB
:10203C0000F020FA0246206320B95221114B1248BD
:10204C0000F0B2F91149124BC0E90013114B0021F9
:10205C0083600B2383810120C2E9040113690E48BC
:10206C00546958430D4901FB0400A3FB01310133B2
:10207C0040EB0100C2E9043020F0004010BD00BF6D
:10208C001C000020483000085F3000080E33CDAB38
:10209C0034126DE6ECDE05002DF451582D7F954C75
:1020AC00002310B50446C0E90033C0E90433836053
:1020BC0081814366C2818361194608225C3000F03D
:1020CC00F7F80D4B246263620C4BA3620C4BE3627A
:1020DC000C4B23630C4B9C4206D003F168029442D8
:1020EC0002D0D0339C4205D104F15800BDE8104019
:1020FC0000F056B910BD00BF352200085722000869
:10210C008F220008B522000858010020024A03491A
:10211C00034800F06BB800BF10000020E92600084F
:10212C002000002041680C4B10B59942044601D0A8
:10213C0000F0D4FAA168094B994202D0204600F075
:10214C00CDFAE168064B994204D02046BDE8104018
:10215C0000F0C4BA10BD00BF58010020C00100201F
:10216C00280200200C4B0D4A10B504211A600C48B3
:10217C000022FFF795FF0A4B01221C46092103F1AF
:10218C006800FFF78DFF04F1D0000222BDE810407B
:10219C001221FFF785BF00BF900200201921000813
:1021AC0058010020014800F0FCB800BF9902002043
:1021BC00014800F0F7B800BF9902002010B50446A2
:1021CC00FFF7F0FF236A1BB1BDE81040FFF7F0BF2B
:1021DC00044B2362044B1B68002BF5D1FFF7C2FFA5
:1021EC00F2E700BF31210008900200202DE9F843EE
:1021FC000746884614460026D4E90195B9F1010931
:10220C0005D52468002CF7D13046BDE8F883AB899E
:10221C00012B07D9B5F90E30013303D029463846C6
:10222C00C04706436835E9E710B50C46B1F90E1006
:10223C0000F068F80028ABBF636DA3891B1823F46A
:10224C008053ACBF6365A38110BD2DE9F0411F46DF
:10225C008B890546DB050C46164605D50223002264
:10226C00B1F90E1000F03CF8A389324623F48053E8
:10227C00A38128463B46B4F90E10BDE8F04100F0AE
:10228C0053B810B50C46B1F90E1000F029F8B4F99A
:10229C000C30421C0BBF23F4805343F48053A381B6
:1022AC00A38118BF606510BDB1F90E1000F008B81D
:1022BC0003460244934200D1704703F8011BF9E72F
:1022CC0038B50023054D044608462B60FFF756F839
:1022DC00431C02D12B6803B1236038BD940200204B
:1022EC0038B50446084611460022054D2A601A46A8
:1022FC00FFF74EF8431C02D12B6803B1236038BDA5
:10230C009402002038B50446084611460022054DBB
:10231C002A601A46FFF714F8431C02D12B6803B14C
:10232C00236038BD9402002038B504460846114697
:10233C000022054D2A601A46FFF712F8431C02D101
:10234C002B6803B1236038BD94020020014B186840
:10235C00704700BF1C00002070B500260C4D0D4BC3
:10236C005B1B9C10A64209D1002600F03DFE0A4DD5
:10237C000A4B5B1B9C10A64205D170BD55F8043B63
:10238C0098470136EEE755F8043B98470136F2E7DB
:10239C005031000850310008503100085431000809
:1023AC0070477047704700001FB514461A46094B1A
:1023BC0005461B68D8684CB1074BCDE90134009138
:1023CC002B46064900F0B2F900F0D2F9044B1C463A
:1023DC00F3E700BF1C000020E1300008EE300008DD
:1023EC001C31000838B50546002940D051F8043C92
:1023FC000C1F002BB8BFE41800F0E6F81C4A136859
:10240C0033B9636014602846BDE8384000F0E2B888
:10241C00A34208D9206821188B4201BF19685B6858
:10242C0009182160EDE71A465B680BB1A342FAD993
:10243C0011685018A0420BD12068014450188342F7
:10244C001160E0D118685B68084410605360DAE7EB
:10245C0002D90C232B60D6E7206821188B4201BFD0
:10246C0019685B680918216063605460CBE738BD5C
:10247C00A0020020024B0146186800F025B800BFEE
:10248C001C00002070B50F4E0C463168054611B982
:10249C0000F05EF930602146284600F059F9431CE3
:1024AC0003D14FF0FF34204670BDC41C24F003044C
:1024BC00A042F8D0211A284600F04AF90130F2D196
:1024CC00EFE700BF9C0200202DE9F843CD1C25F05E
:1024DC00030508350C2D38BF0C25002D064601DBF5
:1024EC00A94204D90C2333600020BDE8F883DFF83F
:1024FC00D48000F069F8D8F800301C4644BB29465B
:10250C003046FFF7BFFF431C044658D1D8F80040B3
:10251C002746002F43D1002C4BD023683946304638
:10252C0004EB030900F014F9814542D121683046CF
:10253C006D1A2946FFF7A6FF01303AD023682B44C9
:10254C002360D8F800305A6862BBC8F800700FE0FE
:10255C002268521B20D40B2A17D96119A34225607B
:10256C0018BF5960636808BFC8F8001062514B600F
:10257C00304600F02FF804F10B00231D20F007006B
:10258C00C21A1CBF1B1AA350AFE76268A3420CBF50
:10259C00C8F800205A60EBE723466468AEE73C4677
:1025AC007F68B6E71A465B68A342FBD100235360F1
:1025BC00DEE70C233046336000F00CF894E705603E
:1025CC00D6E700BFA00200200148FFF7EABE00BF1B
:1025DC00980200200148FFF7E5BE00BF98020020DA
:1025EC00B1F90C20F8B5160705460C4651D44B68CA
:1025FC00002B02DC0B6C002B49DDE66A002E46D06A
:10260C00002312F480522F682B6031D0626DA389A5
:10261C00590705D56368D21A636B0BB1236CD21AB8
:10262C0000232846E66A216AB047421CB4F90C30F4
:10263C0006D129681D2945D8274ACA40D60741D555
:10264C00002262602269D904226004D5421C01D1A7
:10265C002B6803B96065616B2F60C1B104F1440351
:10266C00994202D02846FFF7BDFE002363630EE0BB
:10267C0001232846216AB0470246501CC7D12B685B
:10268C00002BC4D01D2B01D0162B19D12F6000208C
:10269C001DE00F69002FFAD0930718BF00230E68B6
:1026AC0008BF4B69F61B0F608B60002EEFDD3346C5
:1026BC003A462846216AD4F828C0E047002807DCAF
:1026CC00B4F90C304FF0FF3043F04003A381F8BD58
:1026DC000744361AE9E700BF0100402038B50B6902
:1026EC0005460C4613B90025284638BD18B1036AB7
:1026FC000BB9FFF763FDB4F90C30002BF3D0626E0D
:10270C00D00704D4990502D4A06DFFF74AFE2846E1
:10271C002146FFF765FF636E0546DA07E4D4A3890B
:10272C009B05E1D4A06DFFF73DFEDDE70EB403B5CC
:10273C00014603AB054853F8042B0068019300F0E5
:10274C0045F802B05DF804EB03B070471C000020A4
:10275C0038B50023054D044608462B60FEF71AFEDB
:10276C00431C02D12B6803B1236038BD94020020B6
:10277C00062008B500F08EFB0120FEF7DBFD936808
:10278C0010B4013B002B936007DA9469A34201DB80
:10279C000A2902D110BC00F0C3BA1368581C10608F
:1027AC001970084610BC7047F8B506460F4614461B
:1027BC00D518AC4201D1002007E03A46304614F857
:1027CC00011BFFF7DCFF431CF3D1F8BD2DE9F04FE3
:1027DC000D461446984606469DB018B1036A0BB9CF
:1027EC00FFF7ECFC6B6ED90705D4AB899A0502D4C4
:1027FC00A86DFFF7D6FDAB891B0701D52B699BB9DB
:10280C002946304600F0CAFA70B16B6EDC0704D56D
:10281C004FF0FF301DB0BDE8F08FAB899805F7D4B1
:10282C00A86DFFF7BFFDF3E70023099320238DF874
:10283C00293030234FF00109CDF80C80DFF8A88146
:10284C008DF82A3023469A4613F8012B0AB1252A13
:10285C00F9D1BAEB040B0BD05B4622462946304625
:10286C00FFF7A2FF013000F0A780099A5A440992A1
:10287C009AF80030002B00F09F8000234FF0FF32BD
:10288C00CDE905230AF1010A049307938DF853301F
:10289C001A935446052214F8011B534800F016FBFA
:1028AC00049AD8B9D10644BF20238DF853301307AE
:1028BC0044BF2B238DF853309AF800302A2B15D0B7
:1028CC00544600204FF00A0C079A214611F8013BA0
:1028DC00303B092B4BD9B0B1079214E0A0EB0803A5
:1028EC0009FA03F31343A2460493D2E7039B191D81
:1028FC001B680391002BBBBF5B4242F002020793A3
:10290C000793B8BF049223782E2B0AD163782A2B15
:10291C0032D1039B02341A1D1B68039243EAE37302
:10292C000593DFF8C8A003225046217800F0CEFAB8
:10293C0038B14022049BA0EB0A00824013430134BF
:10294C00049314F8011B062229488DF8281000F076
:10295C00BDFA00283FD0274B1BBB039B073323F04A
:10296C00070308330393099B3B4409936AE70C461E
:10297C0001200CFB0232A8E700234FF00A0C194689
:10298C0001340593204610F8012B303A092A03D95B
:10299C00002BC6D00591C4E7044601230CFB012192
:1029AC00F0E703AB00932A463046134B04A9AFF370
:1029BC0000800746781CD6D16B6ED90705D4AB893D
:1029CC009A0502D4A86DFFF7EDFCAB895B063FF5C9
:1029DC001FAF09981EE703AB00932A463046064BFF
:1029EC0004A900F07DF8E4E71D310008233100084C
:1029FC002731000800000000B52700082DE9F0473A
:102A0C00164698468A680B6907469342B8BF134628
:102A1C00336091F843200C46DDF820900AB1013365
:102A2C0033602368990642BF3368023333602568EC
:102A3C0015F0060506D104F1190AE36832689B1AF1
:102A4C00AB422BDC94F843302268003B18BF0123C7
:102A5C00920630D44146384604F14302C84701304F
:102A6C0023D02368226903F00603042B14BF00252E
:102A7C0033684FF0000608BFE56804F11A0408BF7C
:102A8C00ED1A54F8123C08BF25EAE5759342C4BF11
:102A9C009B1AED18B5421AD1002008E001235246CA
:102AAC0041463846C847013003D14FF0FF30BDE8EE
:102ABC00F0870135C1E73020E11881F843005A1C3A
:102ACC0094F845102244023382F84310C2E70123E4
:102ADC00224641463846C8470130E6D00136D9E790
:102AEC002DE9FF470F7E9146782F80460C469A467B
:102AFC000C9E01F1430207D8622F0AD8002F00F078
:102B0C00D280582F00F0B78004F1420684F842704E
:102B1C003AE0A7F16303152BF6D801A151F823F085
:102B2C00852B0008992B0008152B0008152B000885
:102B3C00152B0008152B0008992B0008152B0008E5
:102B4C00152B0008152B0008152B0008992C0008D4
:102B5C00C32B00084F2C0008152B0008152B000860
:102B6C00BB2C0008152B0008C32B0008152B0008E4
:102B7C00152B0008572C000833681A1D1B6832608F
:102B8C0004F1420684F8423001239DE0336820684A
:102B9C00191D3160060601D51D6803E04506FBD5FD
:102BAC00B3F90050002D03DA2D236D4284F8433025
:102BBC000A23594810E021683368080653F8045B6F
:102BCC0002D4490648BFADB26F2F5348336059D178
:102BDC000823002184F843106668002EA66005DBEC
:102BEC0021682E4321F0040121604DD01646B5FB1F
:102BFC00F3F103FB1157C75D06F8017D2F46BB426D
:102C0C000D46F4D9082B0BD12368DF0708D52369AF
:102C1C0061689942DEBF302306F8013C06F1FF36AD
:102C2C00921B22614B4621464046CDF800A003AAD8
:102C3C00FFF7E4FE01304CD14FF0FF3004B0BDE89B
:102C4C00F087236843F0200323607827334884F807
:102C5C004570236831681F0651F8045B02D45F0687
:102C6C0048BFADB23160D90744BF43F020032360A5
:102C7C001DB11023ADE72848E9E7236823F02003B2
:102C8C002360F6E70A23A4E71646BBE733682568FA
:102C9C00181D616930602E061B6801D5196002E0B1
:102CAC006806FBD51980002316462361BAE7336802
:102CBC0000211A1D32601E686268304600F006F969
:102CCC0008B1801B606063682361002384F8433083
:102CDC00A8E73246494640462369D0470130ABD07D
:102CEC0023689B0713D4E068039B9842B8BF18462F
:102CFC00A4E70123324649464046D04701309BD0D9
:102D0C000135E36803995B1AAB42F2DCEBE7002573
:102D1C0004F11906F5E700BF2E3100083F31000819
:102D2C00F8B50E461446054618B1036A0BB9FFF701
:102D3C0045FAA369A360A3891A0701D5236943B98E
:102D4C002146284600F02AF818B14FF0FF373846D4
:102D5C00F8BD23682269F6B2981A63693746834234
:102D6C0005DC21462846FFF7B9FC0028EDD1A36805
:102D7C00013BA36023685A1C22601E706269431CCD
:102D8C009A4204D0A389DB07E1D50A2EDFD1214674
:102D9C002846FFF7A3FC0028D9D0D6E738B5284B36
:102DAC00054618680C4618B1036A0BB9FFF706FA0A
:102DBC00B4F90C301A0721D4D80607D409222A609A
:102DCC0043F040034FF0FF30A38130E0590712D598
:102DDC00616B41B104F14403994202D02846FFF7DC
:102DEC0001FB002363630022B4F90C30626022699A
:102DFC0023F02403226043F00803A38122693AB92B
:102E0C009A0501D5180603D52146284600F090F8FE
:102E1C00B4F90C3013F001020AD00022A2606269EE
:102E2C005242A261226942B913F08000C8D138BD68
:102E3C00990758BF6269A260F4E70020F7E700BF6A
:102E4C001C0000201F2938B505460C4604D9162352
:102E5C0003604FF0FF3038BDC26B12B152F8213015
:102E6C004BB9284600F030F8224601462846BDE80A
:102E7C00384000F017B8012B0AD0591C03D1162387
:102E8C0003600120E7E70021204642F82410984710
:102E9C000020E0E7024B01461868FFF7D3BF00BFE4
:102EAC001C00002038B50023064D04460846114688
:102EBC002B60FEF737FA431C02D12B6803B1236059
:102ECC0038BD00BF94020020FEF72ABA034610B5A5
:102EDC00C9B202449342184601D1002003E00478A1
:102EEC0001338C42F6D110BD70B50C46B1F90E1001
:102EFC00154600291E4696B00ADAA18911F0800108
:102F0C0013D14FF48062002031602A6016B070BD7E
:102F1C006A4600F047F80028EFDB019901F4704194
:102F2C00A1F5005359425941EBE700214022EAE751
:102F3C008B8973B59E0705460C4607D504F14703EC
:102F4C00236023610123636102B070BD01AB6A464B
:102F5C00FFF7CAFF009E28463146FFF7B5FAB4F9D1
:102F6C000C3038B99A05EFD423F0030343F0020375
:102F7C00A381E3E743F08003A381019BC4E904062A
:102F8C002060002BE0D02846B4F90E1000F01CF89D
:102F9C000028D9D0A38923F0030343F00103A381B4
:102FAC00D2E7000038B50023064D0446084611460A
:102FBC002B60FEF7E6F9431C02D12B6803B12360AA
:102FCC0038BD00BF9402002038B50023054D0446DF
:102FDC0008462B60FEF7DAF9431C02D12B6803B1CB
:102FEC00236038BD94020020F8B500BFF8BC08BCC3
:102FFC009E467047F8B500BFF8BC08BC9E467047AB
:10300C00FFFFFF00FFFF0000FF00FF0000FFFF00BD
:10301C000102000002030405060708090A0B0C0D47
:10302C000E0F10100000000001020304000000004D
:10303C000000000001020304060708095245454E32
:10304C0054206D616C6C6F6320737563636565648C
:10305C006564002F5F5F772F61726D2D6E6F6E65EB
:10306C002D656162692D6763632D787061636B2FC9
:10307C0061726D2D6E6F6E652D656162692D676372
:10308C00632D787061636B2F6275696C642D61734D
:10309C00736574732F6275696C642F77696E333244
:1030AC002D7836342F736F75726365732F6E657759
:1030BC006C69622D63796777696E2F6E65776C69C1
:1030CC00622F6C6962632F7374646C69622F726116
:1030DC006E642E63002C2066756E6374696F6E3A95
:1030EC002000617373657274696F6E2022257322E0
:1030FC00206661696C65643A2066696C65202225DE
:10310C0073222C206C696E65202564257325730A47
:10311C0000232D302B2000686C4C006566674546FB
:10312C004700303132333435363738394142434435
:10313C0045460030313233343536373839616263C5
:04314C006465660050
:043150003101000841
:043154000D01000861
:10315800010000001000000000127A0001010000C8
:10316800000000000300000058010020200000209B
:103178000000000058010020C001002028020020A3
:103188000000000000000000000000000000000037
:103198000000000000000000000000000000000027
:1031A8000000000000000000000000000000000017
:0C31B8000000000000000000000000000B
:0400000508001F8947
:00000001FF
